:10073A00CFB5CDB3B3F5CABCBBAFB3C9B9A62CC448
:10074A00A3CABDCEAA000D0A00BDD3CAD5B5BD53F2
:10075A00544D333220C0B6D1C0D0C5BAC50D0A0037
:10076A00CAB6B1F0B3ACCAB10D0A00B3C9B9A6CAC8
:10077A00B6B1F0D2BBBCB6BFDAC1EE0D0A00D4BF27
:10078A00B3D70D0A00C4A3BFE9CFECD3A60D0A0064
:10079A00C7AEB0FC0D0A00D2A3BFD8C6F70D0A0037
:1007AA00D0A3D4B0BFA80D0A00CAD6BBFA0D0A005E
:1007BA00CAF3B1EA0D0A00C3C5BFA80D0A0055C5A0
:1007CA00CC0D0A00B1ADD7D30D0A00D2A9CFE40DE2
:1007DA000A00B6FABBFA0D0A00BCC7CAC2B1BE0DFE
:1007EA000A00B4E6C7AEB9DE0D0A00B5E7C4D40DF7
:1007FA000A00D1AAD1B9BCC60D0A00CAB6B1F0B472
:10080A00EDCEF30D0A00CFC8B6C1B3F6D2BBBCB663
:07081A00BFDAC1EE0D0A0078
:09000E00015A00015600015900DD
:10082100E4F546120C9A120D2D120E02E4785AF6D6
:1008310030930674082556F55630920674042556F1
:10084100F5563091040556055630900205567BFF4A
:100851007A07793A120E29E55675F00A842430FF99
:10086100120E8EE55675F00A84E5F02430FF120E63
:100871008E7BFF7A077950120E2920B30DD296D2C2
:10088100977BFF7A077953120E29C3E55894F4E553
:1008910057648094814012E4F557F558F559D2C256
:1008A1007BFF7A07796A120E29785AE61460CB2405
:1008B100F1601824DF60C324317020785A76011268
:1008C1000C45EF70B5785A763180AF120006785C2E
:1008D100EFF6120440E4785AF6809FE4785AF680E5
:0108E100997D
:100C9A007580FFE4F59075A0FF75B0FF75C0FFF58C
:100CAA00917592E053B14953B249D2B3D290D291DD
:100CBA00D292D293C297C296D2C2C295120E9CD237
:100CCA0095538E7F438901E4F58A758C28C28DD2AB
:0F0CDA008CD2A9C2C3D289D2A8D2AF75C13D2294
:0A0EA90000007F057E49DEFEDFFC3D
:010EB300221C
:080E4E008F518E508D4F8C4E28
:100E5600E4F552F553F554F555784E74FF1206280D
:0B0E6600EC4D4E4F6005120EA980EE0F
:010E7100225E
:0C0E9C007F117ED07D1BDDFEDEFCDFFA46
:010EA8002227
:03000300020D6E7D
:100D6E00C0E0C0F0C083C082C0D075D000C000C04B
:100D7E0001C002C003C004C005C006C00712098C22
:100D8E00D007D006D005D004D003D002D001D000B9
:0B0D9E00D0D0D082D083D0F0D0E03263
:020440008F47E4
:10044200E4FCEF7034755901F557F5587BFF7A07D4
:100452007975120E29C2C2E4FCECC3940374809431
:100462008040030205FEC297120E9C120E9CD29788
:10047200120E9C120E9C0C80E0E55964016003028E
:1004820005F5D297D296D2C2E54712064604C001BC
:1004920004D30204E80404FD140512150527160509
:1004A2003C1705511805651905791A058A1B059B24
:1004B2001C05AC1D05BD1E05CE1F000005ED7BFF12
:1004C2007A077988120E29E55660030205FE0205B5
:1004D200DD7BFF7A07799A120E29E55664016003E3
:1004E2000205FE0205DD7BFF7A0779A1120E29E5DE
:1004F20056640260030205FE0205DD7BFF7A07797E
:10050200AA120E29E556640360030205FE0205DD08
:100512007BFF7A0779B3120E29E556640460030261
:1005220005FE0205DD7BFF7A0779BA120E29E55630
:10053200640560030205FE0205DD7BFF7A0779C1CF
:10054200120E29E556640660030205FE0205DD7BF4
:10055200FF7A0779C8120E29E5566407600302057F
:10056200FE80787BFF7A0779CE120E29E556640861
:1005720060030205FE80647BFF7A0779D5120E299B
:10058200E5566409707680537BFF7A0779DC120E98
:1005920029E556640A706580427BFF7A0779E31287
:1005A2000E29E556640B705480317BFF7A0779EC93
:1005B200120E29E556640C704380207BFF7A07797E
:1005C200F5120E29E556640D7032800F7BFF7A0713
:1005D20079FC120E29E556640E7021F559D297D294
:1005E20096D2C27BFF7A07798F800E7BFF7A0879D9
:0C05F2000580067BFF7A087910120E29A4
:0105FE0022DA
:03000B00020E7270
:100E7200C0E0758A00758C2875C13DE55964017022
:0C0E8200080558E55870020557D0E03212
:1000260078756E2077750000000000000000000063
:100036000000000079616F2073686900000000000D
:1000460000000000000000007169616E2062616FAF
:1000560000000000000000000000000079616F2031
:100066006B6F6E67207169000000000000000000E1
:100076007869616F207975616E206B610000000000
:100086000000000073686F75206A690000000000B8
:100096000000000000000000736875206269616F4F
:1000A6000000000000000000000000006D656E20EA
:1000B6006B6100000000000000000000000000006E
:1000C600796F752070616E0000000000000000006E
:1000D60000000000626569207A69000000000000E7
:1000E600000000000000000079616F207869616EF1
:1000F6006700000000000000000000006572206A32
:100106006900000000000000000000000000000080
:100116006A69207368692062656E0000000000004D
:100126000000000063756E207169616E206775615D
:100136006E000000000000006469616E206E616F51
:100146000000000000000000000000007875652037
:100156007961206A690000000000000000000000CC
:100166000000000000000000000000000000000089
:100176000000000000000000000000000000000079
:100186000000000000000000000000000000000069
:100196000000000000000000000000000000000059
:100406000000000000000000000102041415161789
:1004160018191A1B1C1D1E1F2021222324252627DE
:1004260028292A2B2C2D2E2F3031323334353637CE
:0A04360038393A3B3C3D3E3F40415F
:100D2D00D2B57F057E007D007C00120E4EC2B57FD0
:100D3D00057E007D007C00120E4ED2B57F057E0033
:100D4D007D007C00120E4EC2A17F057E007D007CD1
:100D5D0000120E4ED2A17F057E007D007C00020E9A
:010D6D004E37
:100A2B007F06120EBF7D357F17120EB47F0A7E0034
:100A3B007D007C00120E4E7F06120EBF7D037F8958
:100A4B00120EB47F057E007D007C00120E4E7D439E
:100A5B007FCF120EB47F057E007D007C00120E4E00
:100A6B007D027FCB120EB47D0A7F11120EB4E4FD12
:100A7B007F1E120EB47D3F7F19120EB47D487F1B73
:100A8B00120EB47D1F7F1D120EB47F0A7E007D00F7
:100A9B007C00120E4E7D047FCD120EB47F057E00BE
:100AAB007D007C00120E4EE4FD7FB9120EB47D4F1B
:0C0ABB007FCF120EB47DFF7F6F020EB4DF
:100BE600120A2BE4FD7FBD120EB47D487F17120E4C
:100BF600B47F0A7E007D007C00120E4E7D807F3C15
:100C0600120EB47D077F3E120EB47DFF7F38120EA2
:100C1600B47D077F3A120EB4E4FD7F40120EB47D18
:100C2600087F42120EB4E4FD7F44120EB47D087FA5
:0F0C360046120EB47F017E007D007C00020E4E40
:10098C00E4F545C2A87F2B120EBF785BA607E4FDE9
:10099C007F29120EB4E4FD7F02120EB4785BE630B0
:1009AC00E4377FB2120EBFEF6421702D7FBF120EA1
:1009BC00BFEF643570237FBA120EBF8F457E00D314
:1009CC00EF9400748094804010D3EF94047480945E
:1009DC00805006785A76108004785A7611E4FD7FA0
:1009EC002B120EB4E4FD7F1C120EB4E4FD7F291211
:1009FC000EB4E4FD7F02120EB4E4FD7F2B120EB494
:100A0C00E4FD7FBA120EB4E4FD7FBC120EB47D017E
:0E0A1C007F08120EB4E4FD7F08120EB4D2A8BB
:010A2A0022A9
:100C4500E4F547F548F547C3E54794057480948076
:100C5500504012001F7F327E007D007C00120E4E38
:100C65001208E2EF700280117F0A7E007D007C0091
:100C7500120E4E120AC7EF7010120D2D7F327E0034
:100C85007D007C00120E4E800575480180040547E5
:040C950080B5AF482F
:010C99002238
:100DA900E4F54DF54CC3E54C940A74809480501ECB
:100DB9007FB2120EBFEF64217005754D01800F7F60
:100DC9000A7E007D007C00120E4E054C80D7AF4D87
:010DD90022F7
:03001F00020BE6EB
:100AC700C2A87D437F35120EB47D097F1C120EB478
:100AD7007D207FBD120EB47D017F08120EB47F0109
:100AE7007E007D007C00120E4EE4FD7F08120EB4DE
:100AF7007F017E007D007C00120E4E120DA9EF7063
:100B070002FF227D0B7F1C120EB47DFF7FB2120EF7
:100B1700B47F017E007D007C00120E4E7D067F377C
:100B2700120EB47F017E007D007C00120E4E7D0602
:100B37007F37120EB47F057E007D007C00120E4EBB
:100B47007D107F29120EB4E4FD7FBD120EB4D2A82A
:030B57007F0122F9
:1008E200754A01E4F549C3E5499432748094804025
:1008F20003020989120DA9EF7005F54A020989E57B
:100902004990040E93FD7FC1120EB4E4FD7FC31221
:100912000EB47D047F08120EB47F017E007D007C40
:1009220000120E4EE4FD7F08120EB47F017E007DA0
:10093200007C00120E4EE4F54BC3E54B9414748018
:100942009480502975F014E549A42426F582E5F037
:100952003400F583E582254BF582E43583F583E4A3
:1009620093FD60097F05120EB4054B80CCAD4B7F21
:10097200B9120EB47DFF7FB2120EB47D047F37121E
:090982000EB405490208E8AF4A71
:01098B002249
:050006007FC5020EBFE2
:0B0EB400908100EFF0908000EDF02234
:0B0EBF00908100EFF0908000E0FF2227
:070017000211258001100019
:100E0200759850438920AE11AF12AB07AA06E4F9D8
:100E1200F8FF7EE1FDFC120CE91206188F8B8F8D14
:070E2200D28ED2ACD2AF2248
:0E0E8E00C2ACC2998F993099FDC299D2AC22A4
:100E29008B488A49894AAB48AA49A94A1205FF60F1
:100E390013054AE54A7002054914F91205FFFF1224
:050E49000E8E80E22284
:03002300020DDAF1
:100DDA00C0E0C0D075D008309819C2987413251095
:100DEA00F8A6990510C3E5109431748094804003E5
:080DFA00751000D0D0D0E032EA
:03000000020B5A96
:0C0B5A00787FE4F6D8FD75815C020BA1E9
:1005FF00BB010689828A83E0225002E722BBFE02FA
:09060F00E32289828A83E493222C
:100CE900C2D5E830E70FB2D5E4C39BFBE49AFAE436
:100CF90099F9E498F8EC30E717B2D5120D1F1206EE
:100D0900A8E4C39BFBE49AFAE499F9E498F8800310
:100D19001206A830D50DE4C39FFFE49EFEE49DFDB5
:040D2900E49CFC2228
:0E061800C3E49FFFE49EFEE49DFDE49CFC22F3
:100626007401FF3395E0FEFDFC080808E6CF2FF6BF
:1006360018E6CE3EF618E6CD3DF618E6CC3CF62298
:10064600D083D082F8E4937012740193700DA3A343
:1006560093F8740193F5828883E473740293686057
:06066600EFA3A3A380DF57
:100B6600020821E493A3F8E493A34003F68001F27C
:100B760008DFF48029E493A3F85407240CC8C33390
:100B8600C4540F4420C8834004F456800146F6DF5F
:100B9600E4800B010204081020408090000EE47EE1
:100BA600019360BCA3FF543F30E509541FFEE49354
:100BB600A360010ECF54C025E060A840B8E493A31B
:100BC600FAE493A3F8E493A3C8C582C8CAC583CA46
:100BD600F0A3C8C582C8CAC583CADFE9DEE780BEFE
:01001E0000E1
:10066C0075F008758200EF2FFFEE33FECD33CDCC45
:10067C0033CCC58233C5829BED9AEC99E5829840C8
:10068C000CF582EE9BFEED9AFDEC99FC0FD5F0D6A5
:10069C00E4CEFBE4CDFAE4CCF9A88222B800C1B9CF
:1006AC000059BA002DEC8BF084CFCECDFCE5F0CB0D
:1006BC00F97818EF2FFFEE33FEED33FDEC33FCEB46
:1006CC0033FB10D703994004EB99FB0FD8E5E4F901
:1006DC00FA227818EF2FFFEE33FEED33FDEC33FCEE
:1006EC00C933C910D7059BE99A4007EC9BFCE99AE2
:1006FC00F90FD8E0E4C9FAE4CCFB2275F010EF2F27
:10070C00FFEE33FEED33FDCC33CCC833C810D70726
:10071C009BEC9AE899400AED9BFDEC9AFCE899F861
:0E072C000FD5F0DAE4CDFBE4CCFAE4C8F922F4
:00000001FF
